:100000000C9475180C94A6180C94A6180C94A618A9
:100010000C94A6180C94A6180C94A6180C94A61868
:100020000C94A6180C94A6180C94A6180C94A61858
:100030000C94A6180C94A6180C94A6180C94A61848
:100040000C94A6180C947BB90C94A6180C94A618C2
:100050000C94A6180C94A6180C9457CA0C9409CCAE
:100060000C94A6180C94391F0C94A6180C94A6187E
:100070000C94A6180C94A6180C94A6180C94A61808
:100080000C94A6180C94A6180C94A6180C94A618F8
:100090000C94A6180C94A6180C94A6180C94BB608B
:1000A0000C94A6180C94A6180C94A6180C94A618D8
:1000B0000C94A6180C94A6180C94A6180C94A618C8
:1000C0000C94A6180C94A6180C94A6180C94A618B8
:1000D0000C94A6180C94A6180C94A6180C94A618A8
:1000E0000C94A6186A5B6A5B6D5B705B765B795BF0
:1000F0007C5B7F5B845B735B3AA33DA341A345A319
:1001000049A34DA3B1A351A355A35AA3B1A35FA380
:1001100065A369A36EA372A376A3B1A37AA37EA3FA
:1001200084A3B1A38AA390A392A394A396A398A314
:100130009AA39CA39EA3A0A3A2A3A4A3A6A3A8A39F
:10014000AAA3ACA3AEA33ECD43CD48CD52CD5CCD4A
:10015000D5CD66CD6ECD76CD80CD8ACD94CDA3CDD7
:10016000ADCDD5CDB7CDC1CDCBCDF6CDF9CDE8CD8B
:10017000ECCDF2CD30CEFDCD01CE07CE0BCE0FCEE5
:1001800015CE19CE1DCE30CE23CE27CE2BCE084A8B
:10019000D73B3BCE016E84BCBFFDC12F3D6C74319B
:1001A0009ABD56833DDA3D00C77F11BED9E4BB4CF2
:1001B0003E916BAAAABE000000803F05A84CCDB2BC
:1001C000D44EB93836A9020C50B9918688083CA69D
:1001D000AAAA2ABE000000803F0048617264636FD3
:1001E0006465642044656661756C7420536574743D
:1001F000696E6773204C6F616465640056303130FE
:100200000053746F7265642073657474696E6773EC
:100210002072657472696576656400204400204927
:10022000002020204D3330312050005049442073AD
:10023000657474696E67733A00205A002059002073
:10024000204D323036205800486F6D65206F66664D
:1002500073657420286D6D293A00204500205A00EE
:1002600020580020420020540020204D32303520FC
:100270005300416476616E636564207661726961E2
:10028000626C65733A20533D4D696E206665656406
:100290007261746520286D6D2F73292C20543D4D9B
:1002A000696E2074726176656C2066656564726142
:1002B000746520286D6D2F73292C20423D6D696E69
:1002C000696D756D207365676D656E742074696DF9
:1002D0006520286D73292C20583D6D6178696D75F6
:1002E0006D205859206A65726B20286D6D2F732917
:1002F0002C20205A3D6D6178696D756D205A206AF9
:1003000065726B20286D6D2F73292C2020453D6D63
:100310006178696D756D2045206A65726B20286D66
:100320006D2F73290020540020204D32303420538B
:1003300000416363656C65726174696F6E3A205346
:100340003D616363656C65726174696F6E2C2054E6
:100350003D7265747261637420616363656C65727C
:100360006174696F6E00204500205A0020590020FA
:10037000204D3230312058004D6178696D756D2007
:10038000416363656C65726174696F6E20286D6D81
:100390002F7332293A00204500205A0020590020AE
:1003A000204D3230332058004D6178696D756D20D5
:1003B00066656564726174657320286D6D2F73299D
:1003C0003A00204500205A0020590020204D3932A3
:1003D00020580053746570732070657220756E69C3
:1003E000743A0053657474696E67732053746F7246
:1003F0006564006563686F3A005072696E74657277
:100400002073746F707065642064756520746F204C
:100410006572726F72732E20466978207468652049
:100420006572726F7220616E6420757365204D393C
:10043000393920746F20726573746172742E2028AC
:1004400054656D7065726174757265206973207290
:10045000657365742E205365742069742061667419
:1004600065722072657374617274696E67290050D9
:1004700072696E7465722068616C7465642E206B9D
:10048000696C6C28292063616C6C656421006F6B5A
:1004900000526573656E643A2000456E6473746F34
:1004A00070207374696C6C2070726573736564205E
:1004B0006166746572206261636B696E67206F6646
:1004C000662E20456E6473746F7020737475636B51
:1004D0003F00456E6473746F70206E6F742070728D
:1004E000657373656420616674657220686F6D69F9
:1004F0006E6720646F776E2E20456E6473746F7024
:100500002062726F6B656E3F00456E6473746F702E
:10051000206E6F74207072657373656420616674F9
:10052000657220686F6D696E6720646F776E2E202C
:10053000456E6473746F702062726F6B656E3F00FE
:100540002200556E6B6E6F776E20636F6D6D616EFE
:10055000643A202200456C656374726F6E69637340
:100560005F746573740020423A300020423A3100D3
:100570006F6B20523A002200556E6B6E6F776E20C3
:10058000636F6D6D616E643A2022007A5F6D696EF3
:100590003A2000795F6D696E3A2000785F6D696E70
:1005A0003A20005A3A00593A0020436F756E742081
:1005B000583A2000453A005A3A00593A00583A0051
:1005C0004649524D574152455F4E414D453A4D6166
:1005D000726C696E20556C74696D616B6572323B2B
:1005E00020537072696E7465722F6772626C206D31
:1005F000617368757020666F722067656E3620467D
:1006000049524D574152455F55524C3A6874747087
:100610003A2F2F6769746875622E636F6D2F556C62
:1006200074696D616B65722050524F544F434F4C4B
:100630005F56455253494F4E3A312E30204D41437B
:1006400048494E455F545950453A556C74696D613F
:100650006B65722045585452554445525F434F557F
:100660004E543A310A0020423A0020453A00543AAA
:100670000020573A0020453A00543A002042403AC0
:100680000020403A00202F0020423A00202F006F27
:100690006B20543A002569206D696E2C2025692055
:1006A00073656300456E642066696C65206C6973D0
:1006B0007400426567696E2066696C65206C6973B9
:1006C0007400256920686F757273202569206D6933
:1006D0006E7574657300446F6E65207072696E7418
:1006E000696E672066696C65005072696E74657228
:1006F0002073746F707065642064756520746F205A
:100700006572726F72732E20466978207468652056
:100710006572726F7220616E6420757365204D3949
:10072000393920746F20726573746172742E2028B9
:1007300054656D706572617475726520697320729D
:10074000657365742E205365742069742061667426
:1007500065722072657374617274696E6729006FC7
:100760006B004E6F204C696E65204E756D62657230
:10077000207769746820636865636B73756D2C20DE
:100780004C617374204C696E653A20004E6F2043B3
:100790006865636B73756D2077697468206C696E2A
:1007A00065206E756D6265722C204C617374204CEF
:1007B000696E653A2000636865636B73756D206DC3
:1007C00069736D617463682C204C617374204C698B
:1007D0006E653A20004C696E65204E756D626572DB
:1007E000206973206E6F74204C617374204C696EA5
:1007F00065204E756D6265722B312C204C617374CF
:10080000204C696E653A20004D31313000446F6EE6
:100810006520736176696E672066696C652E006F6E
:100820006B004D3239002020506C616E6E65724253
:10083000756666657242797465733A200020467267
:100840006565204D656D6F72793A20004A756C20A0
:100850003237203230313800436F6D70696C656417
:100860003A200056657273696F6E204445562033F6
:100870002E303100207C20417574686F723A200060
:100880004A756C20323720323031382031313A35D8
:10089000323A323200204C617374205570646174B6
:1008A00065643A2000312E302E30004D61726C6943
:1008B0006E200020536F66747761726520526573F5
:1008C000657400205761746368646F6720526573B4
:1008D0006574002042726F776E206F7574205265C8
:1008E000736574002045787465726E616C20526582
:1008F00073657400506F7765725570007374617220
:1009000074002200656E717565696E672022002291
:1009100000656E717565696E67202200FFFFFF003C
:1009200000E0400000E0400000E0400000484300DC
:1009300000374300003943000000000000000000C1
:100940000000000000484300003743000039430026
:1009500000000000000000000000006563686F3ABE
:10096000004572726F723A0000002110422063301D
:100970008440A550C660E770088129914AA16BB1F7
:100980008CC1ADD1CEE1EFF131121002733252229F
:10099000B5529442F772D662399318837BB35AA347
:1009A000BDD39CC3FFF3DEE362244334200401146F
:1009B000E664C774A44485546AA54BB52885099597
:1009C000EEE5CFF5ACC58DD553367226111630063F
:1009D000D776F6669556B4465BB77AA719973887E7
:1009E000DFF7FEE79DD7BCC7C448E5588668A778FF
:1009F0004008611802282338CCC9EDD98EE9AFF937
:100A0000488969990AA92BB9F55AD44AB77A966ADE
:100A1000711A500A333A122AFDDBDCCBBFFB9EEB86
:100A2000799B588B3BBB1AABA66C877CE44CC55CAE
:100A3000222C033C600C411CAEED8FFDECCDCDDDD6
:100A40002AAD0BBD688D499D977EB66ED55EF44E7E
:100A5000133E322E511E700E9FFFBEEFDDDFFCCF26
:100A60001BBF3AAF599F788F8891A981CAB1EBA17A
:100A70000CD12DC14EF16FE18010A100C230E320F6
:100A80000450254046706760B9839893FBA3DAB39E
:100A90003DC31CD37FE35EF3B1029012F322D23246
:100AA0003542145277625672EAB5CBA5A89589856E
:100AB0006EF54FE52CD50DC5E234C324A014810496
:100AC0006674476424540544DBA7FAB79987B8973E
:100AD0005FE77EF71DC73CD7D326F2369106B016E6
:100AE00057667676154634564CD96DC90EF92FE9FE
:100AF000C899E9898AB9ABA9445865480678276836
:100B0000C018E1088238A3287DCB5CDB3FEB1EFBDD
:100B1000F98BD89BBBAB9ABB754A545A376A167A85
:100B2000F10AD01AB32A923A2EFD0FED6CDD4DCDAD
:100B3000AABD8BADE89DC98D267C076C645C454CD5
:100B4000A23C832CE01CC10C1FEF3EFF5DCF7CDF7D
:100B50009BAFBABFD98FF89F176E367E554E745E25
:100B6000932EB23ED10EF01E7C3C3E5E2B3D3F2FBD
:100B70005B5D3B2C2A225C005052494E54004D4193
:100B800054455249414C004D41494E54454E414E09
:100B90004345005072696E74696E672077697468A6
:100BA000205553422E2E2E00202077616E68616FF3
:100BB00033647072696E7465722E636F6D00476F77
:100BC00020746F3A0058206F72205920737769742F
:100BD000636820737475636B0058206F722059200E
:100BE0007377697463682062726F6B656E005A2058
:100BF00073776974636820737475636B005A20732C
:100C000077697463682062726F6B656E005361660A
:100C100065747920636972637569740048656174ED
:100C20006572206572726F720054656D7020736515
:100C30006E736F72204245440054656D7020736579
:100C40006E736F72004552524F52202D2053544FF5
:100C500050504544008040000000000000000000AB
:100C60000000000000000000000000000000000084
:100C70000000000000000000000000000000000074
:100C800000000000000080C0C0C0C0E0E0F0F8F844
:100C900000F0F8F8F0F0F0E0E0E0E0E0E0E0E0E0C4
:100CA000E0F0F0F0F0F8F8FCFCFCFCFC7CCCF0F898
:100CB000F8F8F0F0F0E0E0C0C080000000000000B4
:100CC0000000000000000000000000000000000024
:100CD0000000000000000000000000000000000014
:100CE0000000000000000000000000000000000004
:100CF0000000800000008080C0C06080E0F0F8F854
:100D0000FCFCFCFEFFFFFFFFFFFFFFFFFFFF07F8FC
:100D1000FFFFFFFFFFFFFFFFFFFFFFFFFFFFFFFFE3
:100D2000FFFFFFFFFFFFFFFFFFFFFFE13EFFFFFFB2
:100D3000FFFFFFFFFFFFFFFFFFFFFFFB820202033A
:100D400003030202060E0C04000000000000000075
:100D50000000000000000000000000000000000093
:100D60000000000000000000000000000000070E6E
:100D7000FEFFFFFFFFFFFFFFFFFFF0833FFFFFFFCF
:100D8000FFFFFFFFFFFFFFFFFFFFFFFFFFFFFFFC76
:100D9000E31FFFFFFFFFFFFFFFFFFFFFFFFFFFFF5F
:100DA000FFFFFFFFFFFFFFFFFFFFFFFFFE8F3FFF84
:100DB000FFFFFFFFFFFFFFFFFFFFFFFFFFF0E00070
:100DC0000000000000000000000000000000000023
:100DD0000000000000000000000000000000000013
:100DE00000000000000070E0E0C0DCFCFCF8F8FC53
:100DF000FFFFFFFFFFFFFFFFFFFFFFFFFEFCFFEF17
:100E00001F3FFFBFDFDFFFEFDFFFFF7FFFFFFFFFC2
:100E1000FF3E0F3F7F7F7FFFFFFFFFFFFFFFFFFFD3
:100E2000FFFFFFFFFF7F7F7F3F3F1F1FEFEFE0DFF1
:100E3000DFBF7F7FFFFFFFFFFF3FDFEFF7FDFFFC1F
:100E4000F8E0C0C00000000000000000000000004A
:100E50000000000000000000000000000000000092
:100E60000000000000000001070F0F1F7FFFFFFFC1
:100E7000FFFFFFFF7F3F1F1F0F070303010000005D
:100E800000000001038FFFFFFFFFFFFF3F0E7E7E8C
:100E90007E7C787CFCF8F0C00000000000010101BD
:100EA0000100000000000080C0F0F8FCFEFF7F7F22
:100EB0007F7F3F3F1F0F0E0680C7FFFFFFFFFFFF33
:100EC000FF1F0F03000000000000000000000000F2
:100ED0000000000000000000000000000000000012
:100EE0000000000000000080808080000000018180
:100EF00081810100000080808080000000000000EF
:100F0000808080808101010101010180808080005A
:100F100000000000008181818000008080808000CE
:100F20000000000000808181810101010101008039
:100F30008080808000000000010101010181818129
:100F40008080808080000000000000000000000021
:100F50000000000000000000000000000000000091
:100F6000000000000000003F7FFFFFC08000FFFF87
:100F7000FFFFE0C000C0FFFFFF3F000000C0F8FF20
:100F8000FFFF1FFFFFFCE0800000FFFFFFFFFF3FB0
:100F90007EFCF8E0C0FFFFFFFF0000FFFFFFFFF057
:100FA0007070707070FFFFFFFF00000080F0FEFFA8
:100FB000FF1FFFFFFEE080000000F8FEFFBF0F07ED
:100FC000070707070FFFFFFCF80000000000000004
:100FD0000000000000000000000000000000000011
:100FE000000000000000000000010F1F3F3F1F072E
:100FF00003071F3F3F1F0703000000183E3F3F0F3E
:1010000007070707071F3F3F3C000F3F3F3F3F00D9
:10101000000003071F3F3F3F1F00003F3F3F3F00CF
:1010200000000000003F3F3F3F00183C3F3F1F07CC
:10103000070707070F3F3F3E380003070F1F3E3CDF
:101040003C3C3C3E1F0F0F0301000000000000006D
:101050000000000000000043414E43454C00207357
:10106000656300206D696E0020686F7572002068EE
:101070006F75727300000000000000005F00000048
:1010800007000700147F147F14242A7F2A122313D9
:1010900008646236495522500005030000001C22F6
:1010A00041000041221C00082A1C2A0808083E08AA
:1010B00008005030000008080808080060600000C0
:1010C00020100804023E5149453E00427F40004244
:1010D000615149462141454B311814127F10274573
:1010E0004545393C4A4949300171090503364949AA
:1010F0004936064949291E0036360000005636009A
:10110000000008142241141414141441221408007D
:101110000201510906324979413E7E1111117E7F4B
:10112000494949363E414141227F4141221C7F4984
:101130004949417F090901013E414151327F080877
:10114000087F00417F41002040413F017F08142279
:10115000417F404040407F0204027F7F0408107FAF
:101160003E4141413E7F090909063E4151215E7FD2
:1011700009192946464949493101017F01013F408A
:1011800040403F1F2040201F7F2018207F6314080D
:1011900014630304780403615149454300007F410F
:1011A00041020408102041417F00000402010204B2
:1011B0004040404040000102040020545454787FD5
:1011C000484444383844444420384444487F3854E0
:1011D000545418087E090102081454543C7F080432
:1011E000047800447D40002040443D00007F1028EA
:1011F0004400417F40007C041804787C0804047893
:1012000038444444387C14141408081414187C7CA2
:10121000080404084854545420043F4440203C40EF
:1012200040207C1C2040201C3C4030403C44281086
:1012300028440C5050503C4464544C4400083641FF
:101240000000007F0000004136080008082A1C0842
:10125000081C2A0808473120462569205A2569209C
:101260005825692059256900473238205A302058BE
:1012700030205930006275696C64706C6174652E41
:10128000006F662061646A757374696E6720796F98
:101290007572007468726F75676820746865207075
:1012A000726F6365737300492077696C6C20677592
:1012B00069646520796F7500434F4E54494E55451A
:1012C0000043414E43454C004731205A31350047D9
:1012D0003238205830205930205A30007468652048
:1012E000726967687420636F726E65722E2E2E00AD
:1012F000526570656174207468697320666F72004E
:10130000372F3700444F4E4500746865206C656682
:101310007420636F726E65722E2E2E00526570659A
:101320006174207468697320666F7200362F37000D
:10133000434F4E54494E554500626974207265739F
:10134000697374616E63652E00756E74696C2079C3
:101350006F75206665656C2061006275696C6470EC
:101360006C61746520616E64206E6F7A7A6C6500C2
:10137000536C6964652061207061706572206265DC
:10138000747765656E00352F3700434F4E54494ED4
:10139000554500434F4E54494E5545004731204670
:1013A0002569205A30004731204625692058256993
:1013B0002059256900473120462569205A35007497
:1013C0006865206275696C64706C617465206C6519
:1013D00076656C2E00706170657220746F2066698E
:1013E0006E652D74756E65006E6F77207573652060
:1013F00061207368656574206F6600526570656171
:1014000074207468697320737465702C206275741D
:1014100000342F3700434F4E54494E5545006672F5
:101420006F6D20746865206275696C64706C61749E
:10143000652E0069732061206D696C6C696D65743F
:1014400065722061776179007363726577207469D2
:101450006C6C20746865206E6F7A7A6C65005475C8
:10146000726E207269676874206275696C64706C52
:1014700061746500332F3700434F4E54494E554534
:1014800000473120462569205A3000473120462543
:10149000692058256920592569004731204625696A
:1014A000205A350066726F6D207468652062756918
:1014B0006C64706C6174652E0069732061206D69C5
:1014C0006C6C696D65746572206177617900736316
:1014D0007265772074696C6C20746865206E6F7A11
:1014E0007A6C65005475726E206C65667420627546
:1014F000696C64706C61746500322F3700434F4E25
:1015000054494E554500473120462569205A300040
:10151000473120462569205825692059256900470B
:101520003120462569205A350066726F6D20746837
:1015300065206275696C64706C6174652E00612051
:101540006D696C6C696D6574657220617761790095
:10155000756E74696C20746865206E6F7A7A6C653C
:1015600020697300526F746174652074686520622D
:101570007574746F6E00312F3700434F4E54494ECF
:10158000554500434F4E54494E5545004300432FA7
:1015900000436C69636B20746F2072657475726EA2
:1015A000004275696C64706C6174652074656D705F
:1015B0002E3A003F3F3F00466163746F727920729C
:1015C000657365740052756E74696D65207374611E
:1015D00074730056657273696F6E004D6F74696F36
:1015E0006E2073657474696E6773005265747261FE
:1015F0006374696F6E2073657474696E67730053EA
:1016000065742066616E207370656564004D6F7649
:1016100065206D6174657269616C00496E736572F5
:1016200074206D6174657269616C004C6F776572CE
:10163000206275696C64706C6174650052616973D5
:1016400065206275696C64706C61746500486F6DCB
:101650006520686561640048656174757020627515
:10166000696C64706C6174650048656174757020A4
:101670006E6F7A7A6C65004C4544207365747469AA
:101680006E6773003C2052455455524E00566572A9
:1016900073696F6E2044455620332E30310025008B
:1016A0004300432F004300432F0025003F3F3F00EE
:1016B00020476C6F77207768656E20646F6E6500D9
:1016C000204F6E207768696C65207072696E74694E
:1016D0006E670020416C77617973204F6666002049
:1016E000416C77617973204F6E004272696768744C
:1016F0006E657373003C2052455455524E002500D0
:1017000025004272696768746E657373004C4544C6
:10171000004300432F00436C69636B20746F207299
:10172000657475726E004E6F7A7A6C652074656DA3
:1017300070657261747572653A00473238205830AE
:10174000205930004300432F00436C69636B2074C1
:101750006F2072657475726E00526F7461746520CB
:10176000746F2065787472756465004E6F7A7A6C58
:10177000652074656D70657261747572653A003FBD
:101780003F3F0052657472616374207370656564D5
:101790000052657472616374206C656E67746800D2
:1017A0003C2052455455524E006D6D2F73656300B9
:1017B0006D6D006D6D2F73656300526574726163AA
:1017C00074207370656564006D6D0052657472619C
:1017D0006374206C656E67746800524554524143CF
:1017E00054494F4E003F3F3F0043757272656E741F
:1017F00020450043757272656E74205A00437572FD
:1018000072656E7420582F59004D61782073706591
:101810006564205A004D61782073706565642059B5
:10182000004D6178207370656564205800582F5909
:10183000204A65726B00416363656C65726174690F
:101840006F6E003C2052455455524E006D41006D64
:1018500041006D41006D6D2F736563006D6D2F73D9
:101860006563006D6D2F736563006D6D2F73656328
:10187000006D6D2F7365635E32006D4100437572BC
:1018800072656E742045006D410043757272656E1D
:1018900074205A006D410043757272656E74205851
:1018A0002F59006D6D2F736563004D617820737043
:1018B000656564205A006D6D2F736563004D617816
:1018C0002073706565642059006D6D2F736563002A
:1018D0004D61782073706565642058006D6D2F73BD
:1018E000656300582F59204A65726B0030306D6D6A
:1018F0002F7365635E3200416363656C657261746A
:10190000696F6E004D4F54494F4E005665727369B2
:101910006F6E2044455620332E3031004A756C20BE
:10192000323720323031382031313A35323A32369E
:101930000052657475726E006D00204D61743A003E
:101940003A005072696E74696E673A003A004D61F0
:101950006368696E65206F6E20666F723A0052652B
:101960007475726E00746F2064656661756C743F87
:101970000052657365742065766572797468696E66
:101980006700594553004E4F00250046616E207395
:101990007065656400473120462569205825692017
:1019A00059256900473238205830205930004739CE
:1019B00030004731205A3230004739310047323841
:1019C00020300047323820583020593000414456EA
:1019D000414E434544004255494C442D7C504C41B6
:1019E000544500414456414E4345440052455455E8
:1019F000524E00435045004350450043504500556A
:101A0000504554004350450041425300504C410062
:101A10006D6174657269616C20696E736572746959
:101A20006F6E0048656174696E67207072696E74CC
:101A30006865616420666F7200250046616E3A2019
:101A400000430043002500466C6F773A006D6D003F
:101A50004D4154455249414C00636F6D6573206F91
:101A6000757420746865206E6F7A7A6C65005761B2
:101A700069742074696C6C206D6174657269616C45
:101A80000052454144590043414E43454C00466F86
:101A90007277617264696E67206D617465726961E5
:101AA0006C0061626F766520746865206172726F88
:101AB000772E00796F7572206D616368696E652C91
:101AC0000066726F6D20746865206261636B736974
:101AD0006465206F6600496E73657274206E657769
:101AE000206D6174657269616C0052454144590012
:101AF00043414E43454C0052656D6F7665206D61E4
:101B000074657269616C0052454144590043414E0D
:101B100043454C00526576657273696E67206D614E
:101B200074657269616C00666F72206D61746572B4
:101B300069616C2072656D6F76616C0048656174D7
:101B4000696E67207072696E7468656164004732FF
:101B50003820583020593000496D706F72742066FB
:101B6000726F6D205344004578706F727420746FEB
:101B700020534400437573746F6D697A65003C208F
:101B800052455455524E004C6F61647320616C6C29
:101B9000206D6174657269616C7300536176657361
:101BA00020616C6C206D6174657269616C73004DAD
:101BB0006F64696679207468652073657474696EF2
:101BC000677300250046616E3A20004300430025FC
:101BD00000466C6F773A006D6D003F3F3F005374D5
:101BE0006F72652061732070726573657400466C56
:101BF0006F7720250046616E004469616D657465EC
:101C00007200486561746564206275696C64706C0B
:101C10006174650054656D706572617475726500FC
:101C20003C2052455455524E00250025006D6D0054
:101C3000430043004E657720707265736574003C05
:101C40002052455455524E0050524553455453006E
:101C500025004D6174657269616C20666C6F770058
:101C6000250046616E207370656564006D6D004DE2
:101C70006174657269616C204469616D6574657237
:101C80000043004275696C64706C61746520546532
:101C90006D702E00430054656D70657261747572CD
:101CA00065004D4154455249414C00696E204D41FB
:101CB00054455249414C2E54585400746F20746856
:101CC000652053442063617264005361766564202B
:101CD0006D6174657269616C73004F6B000A0A0074
:101CE0006469616D657465723D000A00666C6F77AA
:101CF0003D000A0066616E5F73706565643D000AB1
:101D0000006265645F74656D70657261747572659B
:101D10003D000A0074656D70657261747572653D91
:101D2000000A006E616D653D005B6D6174657269EE
:101D3000616C5D0A0052656164696E67206361725F
:101D4000642E2E2E00506C6561736520696E73657C
:101D500072742063617264004E6F2053442D4341BE
:101D60005244210066726F6D2074686520534420D0
:101D700063617264004C6F61646564206D617465B9
:101D80007269616C73004F6B006469616D657465A5
:101D90007200666C6F770066616E5F737065656474
:101DA000006265645F74656D7065726174757265FB
:101DB0000074656D7065726174757265006E616D39
:101DC00065005B6D6174657269616C5D00466F757D
:101DD0006E64206F6E20636172642E004E6F20650A
:101DE00078706F72742066696C6500526561646911
:101DF0006E6720636172642E2E2E00506C656173D5
:101E00006520696E736572742063617264004E6F41
:101E10002053442D43415244210053656C65637443
:101E20006564206D6174657269616C3A004F4B00A6
:101E30004D4154455249414C0047312046256920C7
:101E400058256920592569004732382058302059D3
:101E500030004348414E47450053455454494E478E
:101E6000530052455455524E004300432F00436CDB
:101E700069636B20746F2072657475726E004E6FAB
:101E80007A7A6C652074656D7065726174757265BF
:101E90003A00507265706172696E6720746F2070CD
:101EA00072696E743A0048656174696E6720757076
:101EB0002E2E2E0054554E450041424F5254004C98
:101EC0004544204272696768746E65737300526599
:101ED0007472616374696F6E004D617465726961DB
:101EE0006C20666C6F770046616E20737065656468
:101EF000004275696C64706C6174652074656D7006
:101F00002E0054656D706572617475726500537052
:101F10006565640041626F7274003C2052455455FF
:101F2000524E002500250025004300430043004396
:101F300000250041626F72742074686520707269B8
:101F40006E743F00594553004E4F003F3F3F0052D3
:101F500065747261637420737065656400526574A2
:101F600072616374206C656E677468003C20524532
:101F70005455524E006D6D2F736563006D6D006D8D
:101F80006D2F7365630052657472616374207370A2
:101F9000656564006D6D0052657472616374206CD8
:101FA000656E6774680052455452414354494F4E20
:101FB0000025004272696768746E657373002500BE
:101FC0004D6174657269616C20666C6F77002500E5
:101FD00046616E2073706565640025005072696EFD
:101FE000742073706565640054554E450054696DE6
:101FF00065206C6566740054696D65206C65667457
:1020000020756E6B6E6F776E00430043004865610C
:1020100074696E67206275696C64706C61746500C8
:102020004300430048656174696E67005072696ED1
:1020300074696E673A0054554E45005041555345FA
:1020400000524553554D457C5052494E540043482B
:10205000414E47457C4D4154455249414C005455F1
:102060004E45004D38340047323820583020593022
:102070000047312046256920453000473932204548
:102080002569004D343031004D363031205835202F
:102090005935205A2569204C2569007468652070DF
:1020A00072696E742E00596F752063616E207265BF
:1020B0006D6F7665005072696E742066696E697323
:1020C000686564004241434B20544F204D454E55B6
:1020D0000043004320005072696E74657220636F84
:1020E0006F6C696E6720646F776E004241434B20CE
:1020F000544F204D454E55006F66207072696E74C6
:10210000696E672061726561005472696564207050
:1021100072696E74696E67206F7574004552524F14
:10212000523A0052455455524E20544F204D414989
:102130004E00436F64653A0053442D63617264211D
:102140000072656164696E67004572726F72207714
:1021500068696C650052455455524E20544F204DCD
:1021600041494E0066726F6D2074686520736C691A
:102170006365722E0073657474696E672077697485
:10218000682073657474696E67006F766572726932
:102190006465206D616368696E65005468697320C9
:1021A00066696C652077696C6C00434F4E54494EEC
:1021B00055450043414E43454C003C204241434B72
:1021C000003C2052455455524E0053442043415246
:1021D00044004731204631323030302058352059C4
:1021E000313000473238003B464C41564F523A5549
:1021F0006C746947436F6465003B464C41564F52CF
:102200003A556C746947436F6465004E6F20666988
:102210006C657320666F756E6421004F4B004F4BE9
:102220000052656164696E6720636172642E2E2EB0
:1022300000506C6561736520696E7365727420630C
:10224000617264004E6F2053442D4341524421007B
:102250004E6F20696E666F20617661696C61626C99
:1022600065006D006D004D6174657269616C3A20A6
:102270000054696D653A20003B4D41544552494137
:102280004C3A003B54494D453A00466F6C646572C8
:10229000004D383420582059205A20450043616EA3
:1022A0006E6F7420656E74657220737562646972F6
:1022B0003A20004D3234004D3233202573006175D1
:1022C000746F25692E67006572726F72207772696C
:1022D00074696E6720746F2066696C650043617273
:1022E00064206572726F723A004E6F7420534420FE
:1022F0007072696E74696E67002F005344207072AB
:10230000696E74696E67206279746520002E0044DE
:10231000656C6574696F6E206661696C65642C20FC
:1023200046696C653A200046696C652064656C6599
:102330007465643A002E006F70656E206661696C8A
:1023400065642C2046696C653A200057726974698F
:102350006E6720746F2066696C653A20002E006FEE
:1023600070656E206661696C65642C2046696C65D9
:102370003A20002E006F70656E206661696C65649E
:102380002C2046696C653A200046696C65207365AF
:102390006C6563746564002053697A653A20004671
:1023A000696C65206F70656E65643A20002E006F61
:1023B00070656E206661696C65642C2046696C6589
:1023C0003A200053442063617264206F6B006F7089
:1023D000656E526F6F74206661696C656400766F1C
:1023E0006C756D652E696E6974206661696C6564D3
:1023F00000534420696E6974206661696C006563EE
:10240000686F3A004572726F723A00544553540D2A
:102410000A000D0A00556E6B6E6F776E20636F6D4C
:102420006D616E643A20000D0A003F0056657273BC
:10243000696F6E2044455620332E30310020746F72
:102440006F206C6F6E6720657874727573696F6E3C
:102450002070726576656E7465640020636F6C64CD
:1024600020657874727573696F6E20707265766519
:102470006E746564006563686F3A00205A3A002004
:10248000593A0020583A00656E6473746F70732077
:102490006869743A200024F4D43050C38E20C2A25C
:1024A0004017828B7011127A910D816CD90AA86144
:1024B000E108C7586607615143061E4B5D05C145DB
:1024C000A7041A411104093D9803713931034036BC
:1024D000DB0265339102D4305402802E1D02632C3E
:1024E000EE01752AC501B028A001102781018F25B2
:1024F00064012B244B01E0223401AC211F018D200B
:102500000D01801FFC00841EED00971DDF00B81C2C
:10251000D200E61BC600201BBC00641AB200B21930
:10252000A8000A19A0006A189900D1179100401755
:102530008B00B516840031167E00B31579003A156C
:102540007300C7146F0058146A00EE1366008813F6
:10255000630025135E00C7125B006C125700151252
:102560005400C111510070114F0021114B00D610C1
:1025700049008D1047004610440002104200C00F71
:102580004000800F3E00420F3C00060F3B00CB0E88
:102590003800930E37005C0E3500270E3400F30D23
:1025A0003200C10D3100900D3000600D2E00320D53
:1025B0002D00050D2C00D90C2B00AE0C2900850C2C
:1025C00029005C0C2700350C27000E0C2600E80BB8
:1025D0002400C40B2400A00B23007D0B23005A0B06
:1025E0002100390B2100180B2000F80A1F00D90A1E
:1025F0001E00BB0A1E009D0A1D00800A1D00630A02
:102600001C00470A1B002C0A1B00110A1A00F709BC
:102610001A00DD091900C4091900AB091900920953
:1026200017007B091800630917004C0916003609CA
:102630001600200916000A091500F5081500E00823
:102640001400CC081400B8081400A4081400900862
:1026500013007D0812006B0813005808120046088A
:10266000120034081100230811001208110001089B
:102670001100F0071000E0071000D0071000C0079D
:102680001000B0070F00A107100091070E0083078C
:102690000F0074070F0065070E0057070E0049076B
:1026A0000E003B070D002E070E0020070D0013073C
:1026B0000D0006070D00F9060C00ED060D00E00602
:1026C0000C00D4060C00C8060C00BC060C00B006BA
:1026D0000C00A4060B0099060C008D060B00820668
:1026E0000B0077060B006C060B0061060A0057060C
:1026F0000B004C060A0042060A0038060A002E06A5
:102700000A0024060A001A060A0010060900070635
:102710000A00FD050900F4050900EB050900E205C2
:102720000900D9050900D0050900C7050900BE0543
:102730000900B5050800AD050800A50509009C05C0
:102740000800940508008C050800840508007C0535
:102750000800740508006C050700650508005D05A4
:102760000700560508004E0507004705070040050D
:10277000080038050700310507002A050700230572
:1027800007001C050600160507000F0507000805D1
:10279000060002050700FB040600F5040700EE042E
:1027A0000600E8040600E2040700DB040600D50486
:1027B0000600CF040600C9040600C3040600BD04D9
:1027C0000600B7040600B1040500AC040600A60428
:1027D0000600A00405009B04060095040500900473
:1027E00006008A04050085040500800406007A04BA
:1027F000050075040500700405006B0405006604FF
:102800000500610405005C0405005704050052043E
:1028100005004D04050048040500430405003E047E
:1028200004003A04050035040500300404002C04BB
:10283000050027040400230405001E0404001A04F4
:10284000040016040500110404000D04040009042A
:1028500005000404040000040400FC030400F80361
:102860000400F4030400F0030400EC030400E80394
:102870000400E4030400E0030400DC030400D803C4
:102880000400D4030400D0030400CC030400C803F4
:102890000300C503030024F404D9201BC40C5C0E00
:1028A0009804C4095F0265077101F405F900FB048F
:1028B000B30048048700C1036900580355000303AF
:1028C0004500BE023A008402310053022A00290268
:1028D000250004022000E4011C00C8011900AF011A
:1028E00017009801140084011300710110006101A8
:1028F000100051010E0043010D0036010B002B01A9
:102900000B0020010B00150109000C010900030157
:102910000800FB000800F3000800EB000700E400DB
:102920000600DE000600D8000600D2000600CC003B
:102930000500C7000500C2000500BD000400B90085
:102940000400B5000400B1000400AD000400A900BB
:102950000400A5000300A20003009F0004009B00E8
:10296000030098000300950002009300030090000C
:1029700003008D0002008B00030088000200860027
:10298000020084000300810002007F0002007D003D
:1029900002007B000200790002007700010076004F
:1029A00002007400020072000100710002006F005A
:1029B00002006D0001006C0002006A000100690065
:1029C000020067000100660001006500010064006C
:1029D00002006200010061000100600001005F0070
:1029E00002005D0001005C0001005B0001005A0074
:1029F0000100590001005800010057000100560075
:102A00000100550001005400010053000000530074
:102A100001005200010051000100500001004F0070
:102A200001004E0000004E0001004D0001004C006E
:102A300001004B0000004B0001004A00010049006A
:102A40000100480000004800010047000100460066
:102A50000000460001004500000045000100440060
:102A6000010043000000430001004200000042005A
:102A700001004100000041000100400001003F0052
:102A800000003F0001003E0000003E0001003D004C
:102A900000003D0001003C0000003C0000003C0044
:102AA00001003B0000003B0001003A0000003A003A
:102AB0000100390000003900010038000000380032
:102AC0000000380001003700000037000100360028
:102AD000000036000000360001003500000035001F
:102AE0000000350001003400000034000000340014
:102AF0000100330000003300000033000100320009
:102B000000003200000032000100310000003100FE
:102B100000003100010030000000300000003000F3
:102B200001002F0000002F0000002F0000002F00E8
:102B300001002E0000002E0000002E0001002D00DC
:102B400000002D0000002D0000002D0001002C00D1
:102B500000002C0000002C0000002C0001002B00C5
:102B600000002B0000002B0000002B0001002A00B9
:102B700000002A0000002A0000002A0001002900AD
:102B800000002900000029000000290000002900A1
:102B90000100280000002800000028000000280094
:102BA0000000280001002700000027000000270087
:102BB000000027000000270001002600000026007A
:102BC000000026000000260000002600010025006D
:102BD0000000250000002500000025000000250061
:102BE0000000250001002400000024000000240053
:102BF0000000240000002400010023000000230046
:102C00000000230000002300000023000000230038
:102C1000000023000100220000002200000022002A
:102C2000000022000000220000002200010021001C
:102C30000000210000002100000021000000210010
:102C40000000210000002100010020000000200001
:102C500000002000000020000000200000002000F4
:102C6000000020000000200001001F0000001F00E5
:102C700000001F0000001F0000001F0000001F00D8
:102C800000001F0001001E0000001E0000001E00CA
:102C900000001E0000006563686F3A003A20457826
:102CA00074727564657220737769746368656420F3
:102CB0006F66662E204D494E54454D502074726902
:102CC0006767657265642021003A204578747275E3
:102CD000646572207377697463686564206F6666E3
:102CE0002E204D415854454D5020747269676765D8
:102CF00072656420210054656D706572617475722F
:102D00006520686561746564206265642073776915
:102D10007463686564206F66662E204D4158544583
:102D20004D502074726967676572656420212100C7
:102D3000202D20496E76616C696420657874727507
:102D4000646572206E756D62657220210050494481
:102D5000204175746F74756E652066696E6973685D
:102D60006564212050757420746865204B702C2098
:102D70004B6920616E64204B6420636F6E737461D5
:102D80006E747320696E746F20436F6E6669677529
:102D9000726174696F6E2E680050494420417574E9
:102DA0006F74756E65206661696C65642120746955
:102DB0006D656F75740020403A006F6B20543A00C7
:102DC0006F6B20423A00504944204175746F74750E
:102DD0006E65206661696C6564212054656D70655F
:102DE00072617475726520746F6F2068696768001E
:102DF000204B643A2000204B693A2000204B703A67
:102E0000200020436C6173696320504944200020F6
:102E100054753A2000204B753A2000206D61783AB5
:102E20002000206D696E3A200020643A2000206264
:102E30006961733A20004572726F723A00000000B7
:102E40000018070100A807140030082800B8083C43
:102E50000038095000C0096400480A7800C80A8C8C
:102E600000480BA000C80BB400480CC800C80CDC1C
:102E700000400DF000C00D0401380E1801B00E2CFA
:102E800001280F4001A00F54011810680188107C20
:102E900001001190013013F401481558024017BC8D
:102EA0000228192003F01A8403A81CE803401E4CD2
:102EB00004B8002C01C8002701D8002201E0001D41
:102EC00001F80018010801130118010E0130010971
:102ED00001480104016001FF008001FA00A001F532
:102EE00000C001F000E801EB001002E6003802E14A
:102EF000007002DC00A002D700E002D2002003CD67
:102F0000006803C800C003C3001804BE007804B9F9
:102F100000E004B4005805AF00D805AA006806A573
:102F2000000007A000A8079B0060089600280991F0
:102F300000000A8C00E00A8700D80B8200D80C7DC4
:102F400000E80D7800000F730020106E0048116932
:102F50000078126400A0135F00C8145A00F01555E1
:102F6000000817500010184B0008194600F01941CE
:102F700000C81A3C00881B3700381C3200D01C2DBA
:102F800000581D2800D01D2300301E1E00881E1969
:102F900000C81E1400081F0F00381F0A00601F051C
:102FA00000801F000000000A0B02090C0D0E08072C
:102FB0000304010000000000000000000000000009
:102FC0000000000000000000000000000000000001
:102FD00000121110000000000000000000000000BE
:102FE000000000000000000000000001021020208E
:102FF000080810204010204080020102010804024D
:1030000001010204081020408080402010080402C2
:10301000018004020180402010080402010804021B
:103020000101020408102040800102040810204021
:103030008005050505070508080808020202020ABE
:103040000A0808040404040101010101010101034B
:1030500003030303030303040707070C0C0C0C0C06
:103060000C0C0C0202020206060606060606060BF9
:103070000B0B0B0B0B0B0B00002200250028002B69
:10308000002E003100340002010000050108010B90
:103090000100002100240027002A002D0030003309
:1030A0000001010000040107010A014E414E494E92
:1030B000495459494E46CDCCCC3D0AD7233C17B78D
:1030C000D13877CC2B329595E6241FB14F0A0000FA
:1030D00020410000C84200401C4620BCBE4CCA1B18
:1030E0000E5AAEC59D744748584811241FBECFEFF5
:1030F000D1E2DEBFCDBF00E00CBF14E0A0E0B2E043
:10310000EEEEF5EB01E00BBF02C007900D92AC3381
:10311000B107D9F72AE1ACE3B4E001C01D92AA34AB
:10312000B207E1F710E3C8EED0E300E006C0229753
:103130000109FE010BBF0E94D7D3C63ED10780E034
:103140000807A9F70E94C8CE0C94E6DA0C94000098
:10315000EF92FF920F931F93CF93DF931F92CDB700
:10316000DEB78C017B01460FF70161917F01F80109
:103170008081918149830E9427DAF80180819181C1
:1031800001969183808349814E11EECF0F90DF919C
:10319000CF911F910F91FF90EF900895EF92FF92C2
:1031A0000F931F93CF93DF931F92CDB7DEB78C01A0
:1031B0007B01460FF8018081918149830E940CDADE
:1031C000F70181937F01F8018081918101969183BC
:1031D000808349814E11EECF0F90DF91CF911F91E7
:1031E0000F91FF90EF9008950F931F93CF93DF936C
:1031F000CDB7DEB766970FB6F894DEBF0FBECDBF72
:1032000080E390E3A0E3B0E08D839E83AF83B88733
:1032100004E610E01E8B0D8B44E0BE016B5F7F4F18
:10322000CE01459695DF40E166E779E1CE0145960E
:103230008FDF40E166E879E1CE01459689DF40E124
:1032400062E679E1CE01459683DF44E06AE579E103
:10325000CE0145967DDF44E066E579E1CE014596F5
:1032600077DF44E06EE579E1CE01459671DF44E019
:1032700066E479E1CE0145966BDF44E066E979E1E9
:10328000CE01459665DF44E062E579E1CE014596E1
:103290005FDF44E06EE479E1CE01459659DF44E01A
:1032A0006AE479E1CE01459653DF4CE06EEE7AE0B8
:1032B000CE0145964DDF84EB90E09C8B8B8B86E4B2
:1032C00090E09A8B898B188A1F8684E091E09E8714
:1032D0008D871C870B871A86198642E0BE016D5EBA
:1032E0007F4FCE01459634DF42E0BE016F5E7F4FD7
:1032F000CE0145962DDF42E0BE01615F7F4FCE01DA
:10330000459626DF42E0BE01635F7F4FCE014596C2
:103310001FDF42E0BE01655F7F4FCE01459618DF9B
:1033200042E0BE01675F7F4FCE01459611DF44E06A
:103330006BE872E0CE0145960BDF44E067E872E08F
:10334000CE01459605DF44E063E872E0CE01459684
:10335000FFDE46E063E772E0CE014596F9DE41E02C
:1033600068E472E0CE014596F3DE41E06BE17FE078
:10337000CE014596EDDE44E06BE172E0CE0145966C
:10338000E7DE44E067E172E0CE014596E1DE86E5E6
:1033900091E3A1E3B0E089839A83AB83BC831E8B66
:1033A0000D8B44E0BE016F5F7F4FCE014596D0DEAE
:1033B000E3EFF3E08491882341F09091C00095FF02
:1033C000FCCF8093C6003196F5CFE3EEF3E0849115
:1033D000882341F09091C00095FFFCCF8093C600F8
:1033E0003196F5CF8091C00085FFFCCF8AE08093B5
:1033F000C60066960FB6F894DEBF0FBECDBFDF9154
:10340000CF911F910F910895CF93DF93C3EFD3E036
:10341000FE018491882341F09091C00095FFFCCF7C
:103420008093C6003196F5CFE3EDF3E084918823D5
:1034300041F09091C00095FFFCCF8093C60031967B
:10344000F5CF8091C00085FFFCCF8AE08093C60055
:10345000FE018491E3EFF3E0882349F09091C000EE
:1034600095FFFCCF8093C60031968491F5CF4091B3
:1034700076195091771960917819709179198BECC0
:1034800093E059D740917A1950917B1960917C193A
:1034900070917D1988EC93E04ED740917E19509140
:1034A0007F19609180197091811985EC93E043D761
:1034B00040918219509183196091841970918519F6
:1034C00082EC93E038D78091C00085FFFCCF8AE082
:1034D0008093C600FE018491E3EFF3E0882349F076
:1034E0009091C00095FFFCCF8093C60031968491E7
:1034F000F5CFE8EAF3E08491882341F09091C00091
:1035000095FFFCCF8093C6003196F5CF8091C00027
:1035100085FFFCCF8AE08093C600FE018491E3EF33
:10352000F3E0882349F09091C00095FFFCCF809391
:10353000C60031968491F5CF409186195091871934
:1035400060918819709189198FE993E0F4D64091C0
:103550008A1950918B1960918C1970918D198CE991
:1035600093E0E9D640918E1950918F19609190198E
:103570007091911989E993E0DED6409192195091AA
:103580009319609194197091951986E993E0D3D6B7
:103590008091C00085FFFCCF8AE08093C600FE01C9
:1035A0008491E3EFF3E0882349F09091C00095FF08
:1035B000FCCF8093C60031968491F5CFE8E7F3E025
:1035C0008491882341F09091C00095FFFCCF8093B7
:1035D000C6003196F5CF8091C00085FFFCCF8AE010
:1035E0008093C600FE018491E3EFF3E0882349F065
:1035F0009091C00095FFFCCF8093C60031968491D6
:10360000F5CF4091621950916319609164197091DE
:1036100065198FE693E0A0D640916619509167191D
:1036200060916819709169198CE693E095D6409184
:103630006A1950916B1960916C1970916D1989E636
:1036400093E08AD640916E1950916F19609170196C
:103650007091711986E693E07FD68091C00085FF56
:10366000FCCF8AE08093C600FE018491E3EFF3E093
:10367000882349F09091C00095FFFCCF8093C6004D
:1036800031968491F5CFE1E3F3E08491882341F012
:103690009091C00095FFFCCF8093C6003196F5CF86
:1036A0008091C00085FFFCCF8AE08093C600FE01B8
:1036B0008491E3EFF3E0882349F09091C00095FFF7
:1036C000FCCF8093C60031968491F5CF40915A1972
:1036D00050915B1960915C1970915D1988E293E0DB
:1036E0002AD64091561950915719609158197091E6
:1036F000591985E293E01FD68091C00085FFFCCF69
:103700008AE08093C600FE018491E3EFF3E0882312
:1037100049F09091C00095FFFCCF8093C600319690
:103720008491F5CFE2E7F2E08491882341F0909113
:10373000C00095FFFCCF8093C6003196F5CF8091F5
:10374000C00085FFFCCF8AE08093C600FE01849113
:10375000E3EFF3E0882349F09091C00095FFFCCFA0
:103760008093C60031968491F5CF40915E195091B7
:103770005F19609160197091611989E692E0DBD55B
:103780004091461950914719609148197091491913
:1037900086E692E0D0D540919619509197196091A4
:1037A00098197091991983E692E0D6D540915219F3
:1037B00050915319609154197091551980E692E017
:1037C000BAD540914E1950914F196091501970918E
:1037D00051198DE592E0AFD540914A1950914B199E
:1037E00060914C1970914D198AE592E0A4D58091B1
:1037F000C00085FFFCCF8AE08093C600FE01849163
:10380000E3EFF3E0882349F09091C00095FFFCCFEF
:103810008093C60031968491F5CFE8E4F2E084917C
:10382000882341F09091C00095FFFCCF8093C600A3
:103830003196F5CF8091C00085FFFCCF8AE0809360
:10384000C600FE018491E3EFF3E0882349F09091F4
:10385000C00095FFFCCF8093C60031968491F5CFD0
:103860004091EE0A5091EF0A6091F00A7091F10ACE
:103870008FE392E060D54091F20A5091F30A609193
:10388000F40A7091F50A8CE392E055D54091F60A5E
:103890005091F70A6091F80A7091F90A89E392E071
:1038A0004AD58091C00085FFFCCF8AE08093C60096
:1038B000FE018491E3EFF3E0882349F09091C0008A
:1038C00095FFFCCF8093C60031968491F5CFEBE253
:1038D000F2E08491882341F09091C00095FFFCCFE5
:1038E0008093C6003196F5CF8091C00085FFFCCF54
:1038F0008AE08093C600FE01C491E3EFF3E0CC239D
:1039000049F08091C00085FFFCCFC093C60031967E
:10391000C491F5CF40918B0250918C0260918D0241
:1039200070918E0281E292E006D5609187027091DB
:1039300088028091890290918A020E94ECCBAB01AF
:10394000BC018EE192E0F7D4609183027091840211
:1039500080918502909186020E94F6CBAB01BC015A
:103960008BE192E0E8D48091C00085FFFCCF8AE033
:103970008093C600DF91CF910895AF92BF92CF920E
:10398000DF92EF92FF920F931F93CF93DF93CDB708
:10399000DEB7E0970FB6F894DEBF0FBECDBF80E173
:1039A000EFE8F2E0DE01919601900D928A95E1F741
:1039B00080E1EFE9F2E0DE01519601900D928A95E7
:1039C000E1F780E1EFEAF2E0DE01119601900D925D
:1039D0008A95E1F76E0181E2C80ED11C06E719E174
:1039E0007E01E1E1EE0EF11C66E879E1AE014F5F88
:1039F0005F4F92E6A92E99E1B92E20E030E0F60162
:103A000081919191A191B1916F01F801819391936D
:103A1000A193B1938F01F70181919191A191B191FE
:103A20007F01FB0181939193A193B193BF01FA01AF
:103A300081919191A191B191AF01F5018193919300
:103A4000A193B1935F012F5F3F4F24303105B9F649
:103A50000E9487B880E090E0A8E4B4E480935A190B
:103A600090935B19A0935C19B0935D1980935619DC
:103A700090935719A0935819B093591910925E1941
:103A800010925F19109260191092611980E29EE401
:103A9000A0E0B0E08093961990939719A09398199D
:103AA000B09399191092461910924719109248191B
:103AB0001092491980E090E0A0E2B1E4809352199D
:103AC00090935319A0935419B09355198DEC9CEC15
:103AD000ACECBEE380934E1990934F19A09350190C
:103AE000B0935119C12CD12C80E8E82E8FE3F82E29
:103AF000C0924A19D0924B19E0924C19F0924D198C
:103B00001092F60A1092F70A1092F80A1092F90A27
:103B10001092F20A1092F30A1092F40A1092F50A27
:103B20001092EE0A1092EF0A1092F00A1092F10A27
:103B300085E89BEEA1E1B1E480938B0290938C0227
:103B4000A0938D02B0938E0265E87BEE81ED9EE33B
:103B50000E94E7CB6093870270938802809389026A
:103B600090938A0265E87BEE8BE492E40E94F1CBAD
:103B700060938302709384028093850290938602FF
:103B80000E94F5C2C0927F02D0928002E092810230
:103B9000F092820280EB94E090937402809373021F
:103BA00088EE93E09093760280937502909378026A
:103BB0008093770284E68093480210921B0F80E086
:103BC00090E0A0E9B0E480931B0290931C02A093C4
:103BD0001D02B0931E0280E090E8ABEBB4E480934A
:103BE000170290931802A0931902B0931A02E3EF00
:103BF000F3E08491882341F09091C00095FFFCCFC1
:103C00008093C6003196F5CFEAEDF1E084918823E8
:103C100041F09091C00095FFFCCF8093C600319693
:103C2000F5CF8091C00085FFFCCF8AE08093C6006D
:103C3000E0960FB6F894DEBF0FBECDBFDF91CF91F7
:103C40001F910F91FF90EF90DF90CF90BF90AF90BA
:103C50000895CF93DF93CDB7DEB766970FB6F8948C
:103C6000DEBF0FBECDBF84E690E09E8B8D8B86E5D8
:103C700091E3A1E3B0E089839A83AB83BC8344E002
:103C8000BE016B5F7F4FCE01459688DA43E050E07E
:103C9000BE016B5F7F4FCE0101960E949BD7892B9F
:103CA00009F0C8C040E166E779E1CE01459676DAD1
:103CB00040E166E879E1CE01459670DA40E162E6DE
:103CC00079E1CE0145966ADA0E9487B844E06AE558
:103CD00079E1CE01459662DA44E066E579E1CE010C
:103CE00045965CDA44E06EE579E1CE01459656DA18
:103CF00044E066E479E1CE01459650DA44E066E9B5
:103D000079E1CE0145964ADA44E062E579E1CE01F7
:103D1000459644DA44E06EE479E1CE0145963EDA18
:103D200044E06AE479E1CE01459638DA4CE06EEE83
:103D30007AE0CE01459632DA42E0BE016D5E7F4FF9
:103D4000CE0145962BDA42E0BE016F5E7F4FCE0179
:103D5000459624DA42E0BE01615F7F4FCE01459671
:103D60001DDA42E0BE01635F7F4FCE01459616DA51
:103D700042E0BE01655F7F4FCE0145960FDA42E01B
:103D8000BE01675F7F4FCE01459608DA44E06BE8DD
:103D900072E0CE01459602DA44E067E872E0CE01B7
:103DA0004596FCD944E063E872E0CE014596F6D929
:103DB00046E063E772E0CE014596F0D941E068E461
:103DC00072E0CE014596EAD941E06BE17FE0CE0199
:103DD0004596E4D944E06BE172E0CE014596DED928
:103DE00044E067E172E0CE014596D8D90E94F5C261
:103DF000E3EFF3E08491882341F09091C00095FFB8
:103E0000FCCF8093C6003196F5CFE1E0F2E08491DB
:103E1000882341F09091C00095FFFCCF8093C600AD
:103E20003196F5CF8091C00085FFFCCF8AE080936A
:103E3000C60001C0A2DD43E050E06CEF71E0CE01AE
:103E400001960E9431D7892B51F488EB90E09E8B2C
:103E50008D8B4CE06EEE7AE0CE0145969FD9D4DA98
:103E600066960FB6F894DEBF0FBECDBFDF91CF913F
:103E700008951F920F920FB60F9211240BB60F9256
:103E80002F933F934F935F936F938F939F93EF93F2
:103E9000FF936091C6002091BD043091BE04C9011A
:103EA00001968F7799274091BF045091C0048417E1
:103EB000950741F0F901E35CFB4F60839093BE04EA
:103EC0008093BD04FF91EF919F918F916F915F91CE
:103ED0004F913F912F910F900BBE0F900FBE0F90FF
:103EE0001F9018959A01AB01211581EE3807410505
:103EF000510549F182E08093C00060E079E08DE3F4
:103F000090E00E949FD32150310941095109CA0113
:103F1000B90122E030E040E050E00E949FD33093AE
:103F2000C5002093C4008091C10080618093C100CE
:103F30008091C10088608093C1008091C100806839
:103F40008093C10008951092C00020E130E0E7CFD7
:103F50002091BF043091C0048091BD049091BE04B3
:103F60008217930771F0F901E35CFB4F80812F5FAB
:103F70003F4F2F7733273093C0042093BF0490E046
:103F800008958FEF9FEF08958091BF049091C00432
:103F90009093BE048093BD0408954F925F926F92F8
:103FA0007F928F929F92AF92BF92CF92DF92EF92C9
:103FB000FF920F931F93CF93DF93CDB7DEB7A097F8
:103FC0000FB6F894DEBF0FBECDBF5C0141155105A1
:103FD00061057105E9F420E030E040E350E060E085
:103FE00070E0A0960FB6F894DEBF0FBECDBFDF9194
:103FF000CF911F910F91FF90EF90DF90CF90BF90E6
:10400000AF909F908F907F906F905F904F905BC02C
:104010008E010F5F1F4FC12CD12C76014801422E1B
:10402000512C612C712C8FEFC81AD80AE80AF80AB3
:10403000CB01BA01A30192010E947DD3CA01F8010C
:1040400061938F01A901BC014115510561057105FD
:1040500051F7F1E0CF1AD108E108F108F401EC0DB5
:10406000FD1D80818A3010F440E301C047E3480F12
:10407000552747FD5095652F752F20E030E0C5018D
:1040800022D081E0C81AD108E108F108EFEFCE167E
:10409000DE06EE06FE0611F7A0960FB6F894DEBF18
:1040A0000FBECDBFDF91CF911F910F91FF90EF9089
:1040B000DF90CF90BF90AF909F908F907F906F9048
:1040C0005F904F9008952115310539F48091C0001B
:1040D00085FFFCCF4093C60008952A30310509F4CE
:1040E0001CC05BCFCF93DF93EC0120E030E04DE0CC
:1040F00050E060E070E0E7DF20E030E04AE050E0D0
:1041000060E070E0CE01DF91CF91DDCF9A01AB018D
:10411000662757FD6095762FD6CFCF92DF92EF922C
:10412000FF92CF93DF93EC016A017B0177FF0FC011
:1041300020E030E04DE250E060E070E0C4DFF09459
:10414000E094D094C094C11CD11CE11CF11C2AE065
:10415000B701A601CE01DF91CF91FF90EF90DF90E4
:10416000CF901BCF2115310539F48091C00085FF18
:10417000FCCF4093C600089510CF9A01462F50E01F
:1041800060E070E0EFCFCF93DF93EC019A01AB01D9
:1041900060E070E0E7DFCE01DF91CF91A3CF8F9297
:1041A0009F92AF92BF92CF92DF92EF92FF921F93B6
:1041B000CF93DF93EC016A017B01122F20E030E006
:1041C000A901C701B6010E94B0CF87FF0CC020E053
:1041D00030E04DE250E060E070E0CE0174DFF7FACD
:1041E000F094F7F8F094B12C60E070E080E09FE389
:1041F000B11641F020E030E040E251E40E94B7CF38
:10420000B394F6CF9B01AC01C701B6010E94D7CE93
:104210006B017C010E9424D04B015C010E9450D0B4
:104220009B01AC01C701B6010E94D6CE6B017C0197
:104230002AE0B501A401CE01B0DE112361F0E9E36B
:10424000F4E08191882339F09091C00095FFFCCF74
:104250008093C600F6CF112319F120E030E040E250
:1042600051E4C701B6010E9485D26B017C010E9416
:104270001FD04B01AA2497FCA094BA2CB501A4012D
:10428000CE014BDFC501B4010E9452D09B01AC01AD
:10429000C701B6010E94D6CE6B017C011150DBCF65
:1042A000DF91CF911F91FF90EF90DF90CF90BF9063
:1042B000AF909F908F90089572CFFC01659175919A
:1042C0008591949108950F931F93CF93DF93EC0101
:1042D000CC0FDD1FCC0FDD1FCE01895C964FEDDFCB
:1042E0008E010650154FFE01E251F54F20813181BC
:1042F000428153810E94D7CEF8016083718382830B
:104300009383CE01815B964FD8DFFE01EE51F54FCE
:104310006083718382839383CE018D5B964FCDDF63
:10432000C05EDD4F688379838A839B83DF91CF9161
:104330001F910F910895FC012491222341F03091A7
:10434000C00035FFFCCF2093C6000196F4CF22E0D9
:1043500030E08CE394E0B0CFFC012491222341F0C3
:104360003091C00035FFFCCF2093C6000196F4CFFA
:104370002AE030E08CE394E0F5CECF93DF931F92F8
:104380001F92CDB7DEB78091441A9091451A9E01D5
:104390002F5F3F4F009719F42A543A4102C0281B5F
:1043A000390B3A83298389819A810F900F90DF918D
:1043B000CF9108958091DD049091DE0418161906BE
:1043C0009CF48091E1049091E204019668E070E031
:1043D0000E946AD39093E0048093DF0481E090E030
:1043E0009093DE048093DD0408952091DD043091E4
:1043F000DE04283031050CF06AC04091DF04509192
:10440000E00460E6649F9001659F300D1124BC01BB
:10441000C90185519B4F0E9494D7EBE5F9E0849147
:10442000882341F09091C00095FFFCCF8093C60097
:104430003196F5CFE1E1F9E08491882341F0909144
:10444000C00095FFFCCF8093C6003196F5CF8091D8
:10445000DF049091E00420E6289FF001299FF00DF1
:104460001124E551FB4F8191882339F09091C000D0
:1044700095FFFCCF8093C600F6CFEFE0F9E0849182
:10448000882341F09091C00095FFFCCF8093C60037
:104490003196F5CF8091C00085FFFCCF8AE08093F4
:1044A000C6008091DF049091E004019668E070E01E
:1044B0000E946AD39093E0048093DF048091DD042E
:1044C0009091DE0401969093DE048093DD040895BC
:1044D0002091DD043091DE04283031050CF06AC0F3
:1044E0004091DF045091E00460E6649F9001659F75
:1044F000300D1124BC01C90185519B4F0E9409D781
:10450000EBE5F9E08491882341F09091C00095FF9C
:10451000FCCF8093C6003196F5CFE4E0F9E08491BA
:10452000882341F09091C00095FFFCCF8093C60096
:104530003196F5CF8091DF049091E00420E6289F2A
:10454000F001299FF00D1124E551FB4F8191882343
:1045500039F09091C00095FFFCCF8093C600F6CF54
:10456000E2E0F9E08491882341F09091C00095FF4A
:10457000FCCF8093C6003196F5CF8091C00085FFB7
:10458000FCCF8AE08093C6008091DF049091E00424
:10459000019668E070E00E946AD39093E0048093F3
:1045A000DF048091DD049091DE0401969093DE0497
:1045B0008093DD04089581E02091DD043091DE04D4
:1045C000121613060CF080E008958091DD04089522
:1045D0000A9A129A0895FCDF40E950ED63E070E01A
:1045E0008CE394E07FDCECEFF8E08491882341F0E9
:1045F0009091C00095FFFCCF8093C6003196F5CF17
:104600008091C00085FFFCCF8AE08093C6008BE5D7
:1046100099E0FC012491222341F03091C00035FF44
:10462000FCCF2093C6003196F5CF24B720FF14C0ED
:10463000E4EFF8E03491332341F04091C00045FFAE
:10464000FCCF3093C6003196F5CF3091C00035FFD6
:10465000FCCF3AE03093C60021FF14C0E4EEF8E04E
:104660003491332341F04091C00045FFFCCF30939B
:10467000C6003196F5CF3091C00035FFFCCF3AE04F
:104680003093C60022FF14C0E3EDF8E034913323E9
:1046900041F04091C00045FFFCCF3093C6003196F9
:1046A000F5CF3091C00035FFFCCF3AE03093C60023
:1046B00023FF14C0E3ECF8E03491332341F0409140
:1046C000C00045FFFCCF3093C6003196F5CF309146
:1046D000C00035FFFCCF3AE03093C60025FF14C080
:1046E000E3EBF8E02491222341F03091C00035FF44
:1046F000FCCF2093C6003196F5CF2091C00025FF56
:10470000FCCF2AE02093C60014BEEBEAF8E0249127
:10471000222341F03091C00035FFFCCF2093C6002A
:104720003196F5CFE5EAF8E02491222341F030916B
:10473000C00035FFFCCF2093C6003196F5CF209105
:10474000C00025FFFCCF2AE02093C600FC01249185
:10475000EBE5F9E0222349F03091C00035FFFCCFB2
:104760002093C60031962491F5CFE5E9F8E0249135
:10477000222341F03091C00035FFFCCF2093C600CA
:104780003196F5CFE0E8F8E02491222341F0309112
:10479000C00035FFFCCF2093C6003196F5CFE4E78B
:1047A000F8E02491222341F03091C00035FFFCCF86
:1047B0002093C6003196F5CFE3E6F8E0249122235A
:1047C00041F03091C00035FFFCCF2093C6003196F8
:1047D000F5CF2091C00025FFFCCF2AE02093C60032
:1047E000E8E5F8E02491222341F03091C00035FF44
:1047F000FCCF2093C6003196F5CFECE4F8E024918D
:10480000222341F03091C00035FFFCCF2093C60039
:104810003196F5CF2091C00025FFFCCF2AE02093F0
:10482000C600FC018491EBE5F9E0882349F0909102
:10483000C00095FFFCCF8093C60031968491F5CFE0
:10484000EDE3F8E08491882341F09091C00095FF5A
:10485000FCCF8093C6003196F5CF8FDD4AE050E063
:10486000BC018CE394E052DCE6E2F8E0849188231A
:1048700041F09091C00095FFFCCF8093C600319627
:10488000F5CF4AE050E060ED74E08CE394E03EDC6C
:104890008091C00085FFFCCF8AE08093C600E3EEE4
:1048A000F4E0119284E0EB3EF807D9F7D2D90E94E8
:1048B00053A40E9417C30E9483AD0E94FBCB0E94A9
:1048C000EBC00C94F25A8091D7049091D80460E028
:1048D00070E001960C94FED38091D7049091D80497
:1048E0004AE050E060E070E001960C9466D5682FD5
:1048F000772767FD70952091E1043091E20440E64E
:10490000429FC001439F900D112485519B4F0E94EF
:1049100089D79093D8048093D70421E0892B09F498
:1049200020E0822F08950E9453CC6093D3047093AB
:10493000D4048093D5049093D604E091E104F091DF
:10494000E204ED51FB4F8081811114C0EEE8F4E0E8
:104950008491882341F09091C00095FFFCCF809313
:10496000C6003196F5CF8091C00085FFFCCF8AE06C
:104970008093C60008958CE394E006DBE1E9F4E05F
:104980008491882341F09091C00095FFFCCF8093E3
:10499000C6003196F5CF4091F0075091F107609134
:1049A000F2077091F3074F5F5F4F6F4F7F4F2AE021
:1049B00030E08CE394E087DB8091C00085FFFCCF82
:1049C0008AE08093C600AFCF2F923F924F925F92C2
:1049D0006F927F928F929F92AF92BF92CF92DF920F
:1049E000EF92FF920F931F93CF93DF93CDB7DEB774
:1049F0006E970FB6F894DEBF0FBECDBF30E6932E94
:104A000008E010E049EEE42E46E0F42E5AE0852E50
:104A10006FE5C62E67E0D62E772473948091BD048F
:104A20009091BE042091BF043091C004821B930B6F
:104A30008F779927892B39F08091DD049091DE04DE
:104A400008970CF455C08091120B882309F4F5C324
:104A50008091DA049091DB04892BC1F00E9453CC41
:104A600000911D0F10911E0F20911F0F3091200FEC
:104A7000601B710B820B930B6838734181059105A4
:104A800008F4DBC31092DB041092DA048091130B5C
:104A90008111D3C31AE09CE3C92ED12CE12CF12C57
:104AA00020E1422E2EE0522E612C712CCE01019677
:104AB0001C0100E64091030D5091040D6091050D1D
:104AC0007091060D8091FB0C9091FC0CA091FD0C57
:104AD000B091FE0C481759076A077B0708F0ADC371
:104AE0008091DD049091DE0408970CF444C2A5C3C4
:104AF0008CE394E02DDA8093DC042091DA04309189
:104B0000DB048A3061F08D3051F08A3321F49091CA
:104B1000D904992321F02F3531050CF451C1211509
:104B2000310509F46BC18091DF049091E004989EF7
:104B30005001999EB00C1124F501E20FF31FE551CD
:104B4000FB4F10822091D904211135C1FC01ED5198
:104B5000FB4F1082950125513B4F29016EE470E017
:104B6000C9010E9489D70097E9F19093D8048093F6
:104B7000D704841995098A0D9B1D4AE050E060E036
:104B800070E084519B4F0E9466D56093F407709348
:104B9000F5078093F6079093F7072091F00730917F
:104BA000F1074091F2075091F3072F5F3F4F4F4FAE
:104BB0005F4FA090DF04B090E00462177307840792
:104BC000950709F41EC19A9CC0019B9C900D11246D
:104BD00068E078E085519B4F0E944ED7892B09F001
:104BE00010C19DC16AE270E0C2010E9489D7892B81
:104BF00009F443C0E1E6F9E08491882341F0909103
:104C0000C00095FFFCCF8093C6003196F5CFE2E659
:104C1000F7E08491882341F09091C00095FFFCCF8C
:104C20008093C6003196F5CF4091F0075091F1077F
:104C30006091F2077091F3072AE030E08CE394E092
:104C400042DA8091C00085FFFCCF8AE08093C600E5
:104C50001092DB041092DA04F0C28091F407909174
:104C6000F507A091F607B091F7078093F0079093AE
:104C7000F107A093F207B093F3078091DF049091BE
:104C8000E004989E5001999EB00C1124C5018551F5
:104C90009B4F2C0167E470E00E9489D7009709F4CC
:104CA00044C09093D8048093D704841995098A0D41
:104CB0009B1D60E070E084519B4F0E94FED30E94D8
:104CC0001FD06430710588F58091C504811118C02A
:104CD0008091100B811129C0F6018491EFE5F7E076
:104CE000882349F09091C00095FFFCCF8093C600C7
:104CF00031968491F5CF8091C00085FFFCCF13C021
:104D0000F7018491E9EEF6E0882349F09091C00024
:104D100095FFFCCF8093C60031968491F5CF8091AA
:104D2000C00085FFFCCF8092C6008091DF04909187
:104D3000E004989E5001999EB00C112495012551D4
:104D40003B4F29016DE470E0C9010E9489D790931F
:104D5000D8048093D704841995098A0D9B1D4AE0D5
:104D600050E060E070E084519B4F0E9466D5693648
:104D700071058105910551F00E9453CC60931D0F80
:104D800070931E0F80931F0F9093200F8091DF046C
:104D90009091E0040196B8010E946AD39093E004D8
:104DA0008093DF048091DD049091DE04019690935E
:104DB000DE048093DD041092DB041092DA042ECE20
:104DC0008B3311F47092D9049091D904911126CEAD
:104DD0004091DF045091E004B9016F5F7F4F709301
:104DE000DB046093DA04949EF001959EF00D11248B
:104DF000E20FF31FE551FB4F808310CE1092D904D0
:104E00001CC29A9C20019B9C500C1124C20185510C
:104E10009B4F5C016AE270E00E9489D7009781F5A0
:104E2000E1E6F9E08491882341F09091C00095FF7C
:104E3000FCCF8093C6003196F5CFECE8F7E0849183
:104E4000882341F09091C00095FFFCCF8093C6006D
:104E50003196F5CF4091F0075091F1076091F2073C
:104E60007091F3072AE030E08CE394E02CD9809134
:104E7000C00085FFFCCF8AE08093C6007CDDE8CED1
:104E800020E0612CF201E20FF11DE551FB4F308172
:104E90003A3219F02F5F6326F5CF9093D8048093B0
:104EA000D7048A199B09840D951D60E070E0845138
:104EB0009B4F0E94FED30E941FD0262D30E0261764
:104EC000370709F4CACEE1E6F9E08491882341F07E
:104ED0009091C00095FFFCCF8093C6003196F5CF2E
:104EE000E6EBF7E08491882341F09091C00095FFB4
:104EF000FCCF8093C6003196F5CF4091F0075091DA
:104F0000F1076091F2077091F3072AE030E08CE33B
:104F100094E0D9D88091C00085FFFCCFACCFE1E60A
:104F2000F9E08491882341F09091C00095FFFCCF77
:104F30008093C6003196F5CFE5EDF7E084918823A4
:104F400041F09091C00095FFFCCF8093C600319650
:104F5000F5CF4091F0075091F1076091F207709101
:104F6000F3072AE030E08CE394E0ADD88091C000F4
:104F700085FFFCCF80CF8091E80C9091E90CA09147
:104F8000EA0CB091EB0C8093030D9093040DA09369
:104F9000050DB093060D80EE9CE00E94814D20919E
:104FA000BA0C2223B9F18091140B811105C080E164
:104FB0009BE00E94F29B4CCE1092BA0C1092DB0444
:104FC0001092DA044091C1045091C2046091C3046C
:104FD0007091C4048091FB0C9091FC0CA091FD0C8D
:104FE000B091FE0C9250A109B10984179507A6074C
:104FF000B70718F41092120B20C14093030D509381
:10500000040D6093050D7093060D80EE9CE00E94E8
:105010004A4E13C1482F8093DC048A30A1F08D30B2
:1050200091F08A3321F42091D904222361F0209158
:10503000DA043091DB042F3531052CF48F3FAFEFCC
:105040009A0709F0C8C08090030D9090040DA090BD
:10505000050DB090060D4091FB0C5091FC0C609139
:10506000FD0C7091FE0C84169506A606B70608F096
:10507000D1C0019609F06AC0CDC09091C00095FFE3
:10508000FCCF8093C600319684918111F6CF809138
:10509000C00085FFFCCF1093C6000E9453CC6093E4
:1050A000C7047093C8048093C9049093CA04809085
:1050B000CB049090CC04A090CD04B090CE0468199D
:1050C00079098A099B0928EE33E040E050E00E940C
:1050D0007DD349015A01CA01B901A70196010E9475
:1050E0007DD3CA01B901A70196010E947DD37F93A8
:1050F0006F93C501B401A30192010E947DD33F9338
:105100002F93A2ECB6E0BF93AF933F922F920E94F1
:10511000E0D7EBE5F9E084910FB6F894DEBF0FBE5F
:10512000CDBF81117AC0F101819181117FC0809141
:10513000C00085FFFCCF1093C60080E19BE00E9479
:10514000CFA261E080E19BE00E9415A02091DA04EB
:105150003091DB042115310509F450CE8091DF0434
:105160009091E004089FF001099FF00D1124E20FD7
:10517000F31FE551FB4F1082FC01ED51FB4F21E085
:1051800020832091DD043091DE042F5F3F4F309368
:10519000DE042093DD04019668E070E00E946AD38B
:1051A0009093E0048093DF041092D9041092DB0402
:1051B0001092DA048091030D9091040DA091050DD9
:1051C000B091060D8093C1049093C204A093C304D0
:1051D000B093C4046FCC4B3319F441E04093D9042D
:1051E0004091D904411166CC4091DF045091E00414
:1051F000B9016F5F7F4F7093DB046093DA04049F03
:10520000F001059FF00D1124E20FF31FE551FB4F54
:10521000808350CCE6EDF6E037CF9091C00095FF4B
:10522000FCCF8093C600319684917BCF9091C000D3
:1052300095FFFCCF8093C60077CF6E960FB6F8949B
:10524000DEBF0FBECDBFDF91CF911F910F91FF90B9
:10525000EF90DF90CF90BF90AF909F908F907F9016
:105260006F905F904F903F902F9008954F925F9274
:105270006F927F928F929F92AF92BF92CF92DF9266
:10528000EF92FF920F931F93CF93DF9300D01F9263
:10529000CDB7DEB719821A821B821C827CEBA72E47
:1052A00073E0B72EEAEFCE2EEAE0DE2EFCE0EF2E22
:1052B000F8E0FF2E00E010E099249394F50181912D
:1052C0005F0115DB882361F1FEDA2B013C01F80157
:1052D000E45FF44F8081811103C06091EB0701C04E
:1052E00061E070E080E090E00E9452D0F601208101
:1052F0003181428153810E9485D29B01AC01C3015F
:10530000B2010E94D7CEF7016083718382839383B9
:10531000E1E0F0E0EC0FFD1FE00FF11F90820AC00A
:10532000F60180819181A281B381F701808391830D
:10533000A283B3830F5F1F4FF4E0CF0ED11C84E034
:10534000E80EF11C0430110509F0B8CF86E4CFDA7D
:105350008823D1F0B8DA6B017C016093FC0770936D
:10536000FD078093FE079093FF0720E030E0A9013E
:105370000E94B3D1181644F4C0920A02D0920B02D4
:10538000E0920C02F0920D0280912208882309F429
:10539000BCC089818111B9C08A818111B6C08B815D
:1053A0008111B3C08C81882309F4AFC08090060BB3
:1053B0009090070BA090080BB090090BA5019401E9
:1053C000609118087091190880911A0890911B0833
:1053D0000E94D6CE6B017C012DEC3CEC4CEC5DEBDD
:1053E0000E94B0CF87FF4DC08091210881118DC0F0
:1053F000209113023091140240911502509116022F
:105400006091140870911508809116089091170802
:105410000E94D7CE609314087093150880931608E5
:1054200090931708C701B601905820911B02309144
:105430001C0240911D0250911E020E94D6CE9B017B
:10544000AC01C501B4010E94D6CE6093060B7093E7
:10545000070B8093080B9093090B80911702909192
:105460001802A0911902B0911A0280930A02909337
:105470000B02A0930C02B0930D0281E080932108EF
:1054800044C02DEC3CEC4CEC5DE3C701B6010E943E
:10549000B3D11816D4F5809121088823B1F1A70162
:1054A000960160911B0270911C0280911D029091E7
:1054B0001E020E94D6CE20911D0830911E084091F8
:1054C0001F08509120080E94D7CE9B01AC01C50156
:1054D000B4010E94D7CE6093060B7093070B8093A4
:1054E000080B9093090B80910F0290911002A091EC
:1054F0001102B091120280930A0290930B02A093C2
:105500000C02B0930D02109221080F900F900F9093
:105510000F90DF91CF911F910F91FF90EF90DF904F
:10552000CF90BF90AF909F908F907F906F905F9043
:105530004F9008959BDE89E4DAD9882351F0C3D9CE
:105540006093000870930108809302089093030809
:1055500008C01092000810920108109202081092E0
:1055600003088AE4C4D9882351F0ADD960930408B4
:105570007093050880930608909307080895109289
:105580000408109205081092060810920708089562
:10559000CF92DF92EF92FF92CF93DF93EC01C09016
:1055A000E20AD090E30AE090E40AF090E50AA7014D
:1055B0009601688179818A819B810E94B0CF87FFA3
:1055C00007C0C882D982EA82FB8281E080932308E7
:1055D000C090E60AD090E70AE090E80AF090E90A65
:1055E000A70196016C817D818E819F810E94B0CF41
:1055F00087FF07C0CC82DD82EE82FF8281E080934C
:105600002308C090EA0AD090EB0AE090EC0AF090F0
:10561000ED0AA7019601688579858A859B850E9498
:10562000B0CF87FF07C0C886D986EA86FB8681E0AF
:1056300080932308C0902002D0902102E0902202A3
:10564000F0902302A7019601688179818A819B816C
:105650000E94B3D118163CF4C882D982EA82FB8238
:1056600081E080932308C0902402D0902502E0902E
:105670002602F0902702A70196016C817D818E8120
:105680009F810E94B3D118163CF4CC82DD82EE8259
:10569000FF8281E080932308C0902802D0902902E5
:1056A000E0902A02F0902B02A70196016885798587
:1056B0008A859B850E94B3D118163CF4C886D9868A
:1056C000EA86FB8681E080932308DF91CF91FF90EB
:1056D000EF90DF90CF900895CF92DF92EF92FF92FC
:1056E0000F931F938CE098E053DF0E9453CC60939C
:1056F000D3047093D4048093D5049093D60420915E
:105700000C0830910D0840910E0850910F086091DF
:10571000FA0A7091FB0A8091FC0A9091FD0A0E949E
:10572000B0CF811179C020911008309111084091BB
:105730001208509113086091FE0A7091FF0A80913F
:10574000000B9091010B0E94B0CF811165C020E049
:1057500030E040E752E460910A0270910B028091C0
:105760000C0290910D020E94B7CFA1EECA2EAAE0C2
:10577000DA2E7B018C0128E138E044E158E060E159
:1057800078E08CE098E00E941AAE80910C0890912D
:105790000D08A0910E08B0910F088093FA0A90931B
:1057A000FB0AA093FC0AB093FD0A80911008909127
:1057B0001108A0911208B09113088093FE0A9093EB
:1057C000FF0AA093000BB093010B809114089091F5
:1057D0001508A0911608B09117088093020B9093BA
:1057E000030BA093040BB093050B809118089091C4
:1057F0001908A0911A08B0911B088093060B90938A
:10580000070BA093080BB093090B1F910F91FF900A
:10581000EF90DF90CF90089560912E0270912F024B
:10582000882777FD8095982F0E9452D020910A02F8
:1058300030910B0240910C0250910D020E9485D2D2
:1058400020E030E040E752E40E94B7CF20E030E0B3
:1058500048EC52E488CFAF92BF92CF92DF92EF92A2
:10586000FF920F931F93CF93DF93D82F20910408BB
:105870003091050840910608509107086091000892
:105880007091010880910208909103080E94C0D194
:10589000C62F172F082FF92E60912E0270912F021C
:1058A000882777FD8095982F0E9452D020910A0278
:1058B00030910B0240910C0250910D020E9485D252
:1058C00020E030E040E752E40E94B7CF20E030E033
:1058D00048EC52E40E94B7CF2091E10A2F93DF9366
:1058E000FF920F931F93CF935B016C01B2E0EB2EFD
:1058F00001E020E040E058E06CE078E08AEF9AE0D8
:105900000E94BCA680910C0890910D08A0910E08F1
:10591000B0910F088093FA0A9093FB0AA093FC0AB7
:10592000B093FD0A8091100890911108A09112087F
:10593000B09113088093FE0A9093FF0AA093000B86
:10594000B093010B8091140890911508A09116084E
:10595000B09117088093020B9093030BA093040B54
:10596000B093050B8091180890911908A0911A081E
:10597000B0911B088093060B9093070BA093080B24
:10598000B093090B0E9453CC6093D3047093D4045A
:105990008093D5049093D6040F900F900F900F90A2
:1059A0000F900F90DF91CF911F910F91FF90EF908B
:1059B000DF90CF90BF90AF900895F8940E94B0C34D
:1059C000159A469A439A409A60E088E10E9431CE47
:1059D000E1E6F9E08491882341F09091C00095FFC1
:1059E000FCCF8093C6003196F5CFEFE6F4E08491CA
:1059F000882341F09091C00095FFFCCF8093C600B2
:105A00003196F5CF8091C00085FFFCCF8AE080936E
:105A1000C600FFCFCF93DF931F92CDB7DEB7898348
:105A20000E94B0C39091C5048981911133C08093C5
:105A3000C5048091F0079091F107A091F207B09111
:105A4000F3078093EC079093ED07A093EE07B093D4
:105A5000EF07E1E6F9E08491882341F09091C000DE
:105A600095FFFCCF8093C6003196F5CFE9EFF3E0C8
:105A70008491882341F09091C00095FFFCCF8093E2
:105A8000C6003196F5CF8091C00085FFFCCF8AE03B
:105A90008093C6000F90DF91CF9108956F927F920F
:105AA0008F929F92AF92BF92CF92DF92EF92FF922E
:105AB0000F931F93CF93DF935C01EC01CC0FDD1F9D
:105AC000CC0FDD1FFE01E650F54F108211821282CD
:105AD000138226E03BE042E05BE06EEF7AE08AEF83
